{
  "address": "0x2EA1dD5AD0a8763141347d96a2974fcE701e886D",
  "abi": [
    {
      "inputs": [],
      "stateMutability": "nonpayable",
      "type": "constructor"
    },
    {
      "anonymous": false,
      "inputs": [
        {
          "indexed": false,
          "internalType": "uint8",
          "name": "version",
          "type": "uint8"
        }
      ],
      "name": "Initialized",
      "type": "event"
    },
    {
      "inputs": [],
      "name": "initialize",
      "outputs": [],
      "stateMutability": "nonpayable",
      "type": "function"
    },
    {
      "inputs": [
        {
          "internalType": "uint256",
          "name": "_value",
          "type": "uint256"
        }
      ],
      "name": "store",
      "outputs": [],
      "stateMutability": "nonpayable",
      "type": "function"
    },
    {
      "inputs": [],
      "name": "value",
      "outputs": [
        {
          "internalType": "uint256",
          "name": "",
          "type": "uint256"
        }
      ],
      "stateMutability": "view",
      "type": "function"
    }
  ],
  "transactionHash": "0x428ac26c7fd4294786bc1f1cb6bd687c09b91df0394319d864ebb4102658544e",
  "args": [],
  "numDeployments": 1,
  "solcInputHash": "a213048a58a20b889b580214bc417e59",
  "bytecode": "0x608060405234801561001057600080fd5b5060008060019054906101000a900460ff161590508080156100425750600160008054906101000a900460ff1660ff16105b80610079575061005b3061015460201b6101d01760201c565b1580156100785750600160008054906101000a900460ff1660ff16145b5b6100b8576040517f08c379a00000000000000000000000000000000000000000000000000000000081526004016100af906101fa565b60405180910390fd5b60016000806101000a81548160ff021916908360ff16021790555080156100f5576001600060016101000a81548160ff0219169083151502179055505b801561014e5760008060016101000a81548160ff0219169083151502179055507f7f26b83ff96e1f2b6a682f133852f6798a09c465da95921460cefb38474024986001604051610145919061026c565b60405180910390a15b50610287565b6000808273ffffffffffffffffffffffffffffffffffffffff163b119050919050565b600082825260208201905092915050565b7f496e697469616c697a61626c653a20636f6e747261637420697320616c72656160008201527f647920696e697469616c697a6564000000000000000000000000000000000000602082015250565b60006101e4602e83610177565b91506101ef82610188565b604082019050919050565b60006020820190508181036000830152610213816101d7565b9050919050565b6000819050919050565b600060ff82169050919050565b6000819050919050565b600061025661025161024c8461021a565b610231565b610224565b9050919050565b6102668161023b565b82525050565b6000602082019050610281600083018461025d565b92915050565b6103cb806102966000396000f3fe608060405234801561001057600080fd5b50600436106100415760003560e01c80633fa4f245146100465780636057361d146100645780638129fc1c14610080575b600080fd5b61004e61008a565b60405161005b919061020c565b60405180910390f35b61007e60048036038101906100799190610258565b610090565b005b61008861009a565b005b60015481565b8060018190555050565b60008060019054906101000a900460ff161590508080156100cb5750600160008054906101000a900460ff1660ff16105b806100f857506100da306101d0565b1580156100f75750600160008054906101000a900460ff1660ff16145b5b610137576040517f08c379a000000000000000000000000000000000000000000000000000000000815260040161012e90610308565b60405180910390fd5b60016000806101000a81548160ff021916908360ff1602179055508015610174576001600060016101000a81548160ff0219169083151502179055505b80156101cd5760008060016101000a81548160ff0219169083151502179055507f7f26b83ff96e1f2b6a682f133852f6798a09c465da95921460cefb384740249860016040516101c4919061037a565b60405180910390a15b50565b6000808273ffffffffffffffffffffffffffffffffffffffff163b119050919050565b6000819050919050565b610206816101f3565b82525050565b600060208201905061022160008301846101fd565b92915050565b600080fd5b610235816101f3565b811461024057600080fd5b50565b6000813590506102528161022c565b92915050565b60006020828403121561026e5761026d610227565b5b600061027c84828501610243565b91505092915050565b600082825260208201905092915050565b7f496e697469616c697a61626c653a20636f6e747261637420697320616c72656160008201527f647920696e697469616c697a6564000000000000000000000000000000000000602082015250565b60006102f2602e83610285565b91506102fd82610296565b604082019050919050565b60006020820190508181036000830152610321816102e5565b9050919050565b6000819050919050565b600060ff82169050919050565b6000819050919050565b600061036461035f61035a84610328565b61033f565b610332565b9050919050565b61037481610349565b82525050565b600060208201905061038f600083018461036b565b9291505056fea26469706673582212208dd7adbfc6e3127f5b8e727e77a813f1d60bb9e6d20ab409bc4accd0e267cb2e64736f6c63430008120033",
  "devdoc": {
    "events": {
      "Initialized(uint8)": {
        "details": "Triggered when the contract has been initialized or reinitialized."
      }
    },
    "kind": "dev",
    "methods": {},
    "version": 1
  },
  "userdoc": {
    "kind": "user",
    "methods": {},
    "version": 1
  },
  "storageLayout": {
    "storage": [
      {
        "astId": 6,
        "contract": "contracts/TokenV2.sol:TokenV2",
        "label": "_initialized",
        "offset": 0,
        "slot": "0",
        "type": "t_uint8"
      },
      {
        "astId": 9,
        "contract": "contracts/TokenV2.sol:TokenV2",
        "label": "_initializing",
        "offset": 1,
        "slot": "0",
        "type": "t_bool"
      },
      {
        "astId": 535,
        "contract": "contracts/TokenV2.sol:TokenV2",
        "label": "value",
        "offset": 0,
        "slot": "1",
        "type": "t_uint256"
      }
    ],
    "types": {
      "t_bool": {
        "encoding": "inplace",
        "label": "bool",
        "numberOfBytes": "1"
      },
      "t_uint256": {
        "encoding": "inplace",
        "label": "uint256",
        "numberOfBytes": "32"
      },
      "t_uint8": {
        "encoding": "inplace",
        "label": "uint8",
        "numberOfBytes": "1"
      }
    }
  }
}